{"contractName":"PayingProxy","abi":[{"constant":true,"inputs":[],"name":"proxyType","outputs":[{"name":"","type":"uint256"}],"payable":false,"stateMutability":"pure","type":"function"},{"constant":true,"inputs":[],"name":"implementation","outputs":[{"name":"","type":"address"}],"payable":false,"stateMutability":"view","type":"function"},{"inputs":[{"name":"_masterCopy","type":"address"},{"name":"initializer","type":"bytes"},{"name":"funder","type":"address"},{"name":"paymentToken","type":"address"},{"name":"payment","type":"uint256"}],"payable":false,"stateMutability":"nonpayable","type":"constructor"},{"payable":true,"stateMutability":"payable","type":"fallback"}],"bytecode":"0x608060405234801561001057600080fd5b50604051610673380380610673833981018060405260a081101561003357600080fd5b8101908080519060200190929190805164010000000081111561005557600080fd5b8281019050602081018481111561006b57600080fd5b815185600182028301116401000000008211171561008857600080fd5b5050929190602001805190602001909291908051906020019092919080519060200190929190505050848481600073ffffffffffffffffffffffffffffffffffffffff168173ffffffffffffffffffffffffffffffffffffffff161415151561017f576040517f08c379a00000000000000000000000000000000000000000000000000000000081526004018080602001828103825260248152602001807f496e76616c6964206d617374657220636f707920616464726573732070726f7681526020017f696465640000000000000000000000000000000000000000000000000000000081525060400191505060405180910390fd5b806000806101000a81548173ffffffffffffffffffffffffffffffffffffffff021916908373ffffffffffffffffffffffffffffffffffffffff1602179055505060008151111561020c5773ffffffffffffffffffffffffffffffffffffffff60005416600080835160208501846127105a03f46040513d6000823e6000821415610208573d81fd5b5050505b505060008111156103d657600073ffffffffffffffffffffffffffffffffffffffff168273ffffffffffffffffffffffffffffffffffffffff161415610320578273ffffffffffffffffffffffffffffffffffffffff166108fc829081150290604051600060405180830381858888f19350505050151561031b576040517f08c379a00000000000000000000000000000000000000000000000000000000081526004018080602001828103825260268152602001807f436f756c64206e6f74207061792073616665206372656174696f6e207769746881526020017f206574686572000000000000000000000000000000000000000000000000000081525060400191505060405180910390fd5b6103d5565b61033a8284836103e0640100000000026401000000009004565b15156103d4576040517f08c379a00000000000000000000000000000000000000000000000000000000081526004018080602001828103825260268152602001807f436f756c64206e6f74207061792073616665206372656174696f6e207769746881526020017f20746f6b656e000000000000000000000000000000000000000000000000000081525060400191505060405180910390fd5b5b5b50505050506104f9565b600060608383604051602401808373ffffffffffffffffffffffffffffffffffffffff1673ffffffffffffffffffffffffffffffffffffffff168152602001828152602001925050506040516020818303038152906040527fa9059cbb000000000000000000000000000000000000000000000000000000007bffffffffffffffffffffffffffffffffffffffffffffffffffffffff19166020820180517bffffffffffffffffffffffffffffffffffffffffffffffffffffffff838183161783525050505090506000808251602084016000896127105a03f16040513d6000823e3d600081146104dc57602081146104e457600094506104ee565b8294506104ee565b8151158315171594505b505050509392505050565b61016b806105086000396000f3fe60806040526004361061004c576000357c0100000000000000000000000000000000000000000000000000000000900463ffffffff1680634555d5c91461008b5780635c60da1b146100b6575b73ffffffffffffffffffffffffffffffffffffffff600054163660008037600080366000845af43d6000803e6000811415610086573d6000fd5b3d6000f35b34801561009757600080fd5b506100a061010d565b6040518082815260200191505060405180910390f35b3480156100c257600080fd5b506100cb610116565b604051808273ffffffffffffffffffffffffffffffffffffffff1673ffffffffffffffffffffffffffffffffffffffff16815260200191505060405180910390f35b60006002905090565b60008060009054906101000a900473ffffffffffffffffffffffffffffffffffffffff1690509056fea165627a7a7230582058f6f18c054c8b09fa0b4ce85b0ef0a331a3d51e7e541e311fdf9632498555a20029","source":"pragma solidity ^0.5.0;\nimport \"../common/SecuredTokenTransfer.sol\";\nimport \"./DelegateConstructorProxy.sol\";\n\n/// @title Paying Proxy - Generic proxy contract allows to execute all transactions applying the code of a master contract. It is possible to send along initialization data with the constructor. And sends funds after creation to a specified account.\n/// @author Stefan George - <stefan@gnosis.pm>\n/// @author Richard Meissner - <richard@gnosis.pm>\ncontract PayingProxy is DelegateConstructorProxy, SecuredTokenTransfer {\n\n    /// @dev Constructor function sets address of master copy contract.\n    /// @param _masterCopy Master copy address.\n    /// @param initializer Data used for a delegate call to initialize the contract.\n    /// @param funder Address that should be paid for the execution of this call\n    /// @param paymentToken Token that should be used for the payment (0 is ETH)\n    /// @param payment Value that should be paid\n    constructor(address _masterCopy, bytes memory initializer, address payable funder, address paymentToken, uint256 payment) \n        DelegateConstructorProxy(_masterCopy, initializer)\n        public\n    {\n        if (payment > 0) {\n            if (paymentToken == address(0)) {\n                 // solium-disable-next-line security/no-send\n                require(funder.send(payment), \"Could not pay safe creation with ether\");\n            } else {\n                require(transferToken(paymentToken, funder, payment), \"Could not pay safe creation with token\");\n            }\n        } \n    }\n}\n","compiler":{"name":"solc","version":"0.5.0+commit.1d4f565a.Emscripten.clang"},"schemaVersion":"2.0.1","updatedAt":"2019-02-25T15:14:47.173Z"}