{"contractName":"StateChannelModule","abi":[{"constant":true,"inputs":[],"name":"manager","outputs":[{"name":"","type":"address"}],"payable":false,"stateMutability":"view","type":"function"},{"constant":false,"inputs":[{"name":"_masterCopy","type":"address"}],"name":"changeMasterCopy","outputs":[],"payable":false,"stateMutability":"nonpayable","type":"function"},{"constant":true,"inputs":[],"name":"NAME","outputs":[{"name":"","type":"string"}],"payable":false,"stateMutability":"view","type":"function"},{"constant":true,"inputs":[{"name":"","type":"bytes32"}],"name":"isExecuted","outputs":[{"name":"","type":"uint256"}],"payable":false,"stateMutability":"view","type":"function"},{"constant":true,"inputs":[],"name":"VERSION","outputs":[{"name":"","type":"string"}],"payable":false,"stateMutability":"view","type":"function"},{"constant":false,"inputs":[],"name":"setup","outputs":[],"payable":false,"stateMutability":"nonpayable","type":"function"},{"constant":false,"inputs":[{"name":"to","type":"address"},{"name":"value","type":"uint256"},{"name":"data","type":"bytes"},{"name":"operation","type":"uint8"},{"name":"nonce","type":"uint256"},{"name":"signatures","type":"bytes"}],"name":"execTransaction","outputs":[],"payable":false,"stateMutability":"nonpayable","type":"function"},{"constant":true,"inputs":[{"name":"to","type":"address"},{"name":"value","type":"uint256"},{"name":"data","type":"bytes"},{"name":"operation","type":"uint8"},{"name":"nonce","type":"uint256"}],"name":"getTransactionHash","outputs":[{"name":"","type":"bytes32"}],"payable":false,"stateMutability":"view","type":"function"}],"bytecode":"0x608060405234801561001057600080fd5b50611240806100206000396000f3fe60806040526004361061008e576000357c0100000000000000000000000000000000000000000000000000000000900463ffffffff1680632b50004114610093578063481c6a75146101b05780637de7edef14610207578063a3f4df7e14610258578063ba0bba40146102e8578063e52cb36a146102ff578063f6cc15d01461034e578063ffa1ad74146104ee575b600080fd5b34801561009f57600080fd5b5061019a600480360360a08110156100b657600080fd5b81019080803573ffffffffffffffffffffffffffffffffffffffff16906020019092919080359060200190929190803590602001906401000000008111156100fd57600080fd5b82018360208201111561010f57600080fd5b8035906020019184600183028401116401000000008311171561013157600080fd5b91908080601f016020809104026020016040519081016040528093929190818152602001838380828437600081840152601f19601f820116905080830192505050505050509192919290803560ff1690602001909291908035906020019092919050505061057e565b6040518082815260200191505060405180910390f35b3480156101bc57600080fd5b506101c56107ab565b604051808273ffffffffffffffffffffffffffffffffffffffff1673ffffffffffffffffffffffffffffffffffffffff16815260200191505060405180910390f35b34801561021357600080fd5b506102566004803603602081101561022a57600080fd5b81019080803573ffffffffffffffffffffffffffffffffffffffff1690602001909291905050506107d1565b005b34801561026457600080fd5b5061026d6109ca565b6040518080602001828103825283818151815260200191508051906020019080838360005b838110156102ad578082015181840152602081019050610292565b50505050905090810190601f1680156102da5780820380516001836020036101000a031916815260200191505b509250505060405180910390f35b3480156102f457600080fd5b506102fd610a03565b005b34801561030b57600080fd5b506103386004803603602081101561032257600080fd5b8101908080359060200190929190505050610a0d565b6040518082815260200191505060405180910390f35b34801561035a57600080fd5b506104ec600480360360c081101561037157600080fd5b81019080803573ffffffffffffffffffffffffffffffffffffffff16906020019092919080359060200190929190803590602001906401000000008111156103b857600080fd5b8201836020820111156103ca57600080fd5b803590602001918460018302840111640100000000831117156103ec57600080fd5b91908080601f016020809104026020016040519081016040528093929190818152602001838380828437600081840152601f19601f820116905080830192505050505050509192919290803560ff169060200190929190803590602001909291908035906020019064010000000081111561046657600080fd5b82018360208201111561047857600080fd5b8035906020019184600183028401116401000000008311171561049a57600080fd5b91908080601f016020809104026020016040519081016040528093929190818152602001838380828437600081840152601f19601f820116905080830192505050505050509192919290505050610a25565b005b3480156104fa57600080fd5b50610503610ce4565b6040518080602001828103825283818151815260200191508051906020019080838360005b83811015610543578082015181840152602081019050610528565b50505050905090810190601f1680156105705780820380516001836020036101000a031916815260200191505b509250505060405180910390f35b600060197f01000000000000000000000000000000000000000000000000000000000000000260007f01000000000000000000000000000000000000000000000000000000000000000230888888888860405160200180897effffffffffffffffffffffffffffffffffffffffffffffffffffffffffffff19167effffffffffffffffffffffffffffffffffffffffffffffffffffffffffffff19168152600101887effffffffffffffffffffffffffffffffffffffffffffffffffffffffffffff19167effffffffffffffffffffffffffffffffffffffffffffffffffffffffffffff191681526001018773ffffffffffffffffffffffffffffffffffffffff1673ffffffffffffffffffffffffffffffffffffffff166c010000000000000000000000000281526014018673ffffffffffffffffffffffffffffffffffffffff1673ffffffffffffffffffffffffffffffffffffffff166c0100000000000000000000000002815260140185815260200184805190602001908083835b60208310151561072257805182526020820191506020810190506020830392506106fd565b6001836020036101000a03801982511681845116808217855250505050505090500183600281111561075057fe5b60ff167f01000000000000000000000000000000000000000000000000000000000000000281526001018281526020019850505050505050505060405160208183030381529060405280519060200120905095945050505050565b600160009054906101000a900473ffffffffffffffffffffffffffffffffffffffff1681565b600160009054906101000a900473ffffffffffffffffffffffffffffffffffffffff1673ffffffffffffffffffffffffffffffffffffffff163373ffffffffffffffffffffffffffffffffffffffff161415156108bc576040517f08c379a00000000000000000000000000000000000000000000000000000000081526004018080602001828103825260268152602001807f4d6574686f642063616e206f6e6c792062652063616c6c65642066726f6d206d81526020017f616e61676572000000000000000000000000000000000000000000000000000081525060400191505060405180910390fd5b600073ffffffffffffffffffffffffffffffffffffffff168173ffffffffffffffffffffffffffffffffffffffff1614151515610987576040517f08c379a00000000000000000000000000000000000000000000000000000000081526004018080602001828103825260248152602001807f496e76616c6964206d617374657220636f707920616464726573732070726f7681526020017f696465640000000000000000000000000000000000000000000000000000000081525060400191505060405180910390fd5b806000806101000a81548173ffffffffffffffffffffffffffffffffffffffff021916908373ffffffffffffffffffffffffffffffffffffffff16021790555050565b6040805190810160405280601481526020017f5374617465204368616e6e656c204d6f64756c6500000000000000000000000081525081565b610a0b610d1d565b565b60026020528060005260406000206000915090505481565b6000610a34878787878761057e565b905060006002600083815260200190815260200160002054141515610ac1576040517f08c379a000000000000000000000000000000000000000000000000000000000815260040180806020018281038252601c8152602001807f5472616e73616374696f6e20616c72656164792065786563757465640000000081525060200191505060405180910390fd5b610acb8183610e26565b60016002600083815260200190815260200160002081905550600160009054906101000a900473ffffffffffffffffffffffffffffffffffffffff1673ffffffffffffffffffffffffffffffffffffffff1663468721a7888888886040518563ffffffff167c0100000000000000000000000000000000000000000000000000000000028152600401808573ffffffffffffffffffffffffffffffffffffffff1673ffffffffffffffffffffffffffffffffffffffff16815260200184815260200180602001836002811115610b9d57fe5b60ff168152602001828103825284818151815260200191508051906020019080838360005b83811015610bdd578082015181840152602081019050610bc2565b50505050905090810190601f168015610c0a5780820380516001836020036101000a031916815260200191505b5095505050505050602060405180830381600087803b158015610c2c57600080fd5b505af1158015610c40573d6000803e3d6000fd5b505050506040513d6020811015610c5657600080fd5b81019080805190602001909291905050501515610cdb576040517f08c379a000000000000000000000000000000000000000000000000000000000815260040180806020018281038252601d8152602001807f436f756c64206e6f742065786563757465207472616e73616374696f6e00000081525060200191505060405180910390fd5b50505050505050565b6040805190810160405280600581526020017f302e312e3000000000000000000000000000000000000000000000000000000081525081565b600073ffffffffffffffffffffffffffffffffffffffff16600160009054906101000a900473ffffffffffffffffffffffffffffffffffffffff1673ffffffffffffffffffffffffffffffffffffffff16141515610de3576040517f08c379a000000000000000000000000000000000000000000000000000000000815260040180806020018281038252601c8152602001807f4d616e616765722068617320616c7265616479206265656e207365740000000081525060200191505060405180910390fd5b33600160006101000a81548173ffffffffffffffffffffffffffffffffffffffff021916908373ffffffffffffffffffffffffffffffffffffffff160217905550565b60008090506000806000600160009054906101000a900473ffffffffffffffffffffffffffffffffffffffff1673ffffffffffffffffffffffffffffffffffffffff1663e75235b86040518163ffffffff167c010000000000000000000000000000000000000000000000000000000002815260040160206040518083038186803b158015610eb457600080fd5b505afa158015610ec8573d6000803e3d6000fd5b505050506040513d6020811015610ede57600080fd5b81019080805190602001909291905050509050600091505b8082101561114e57610f09868684611156565b9250600160009054906101000a900473ffffffffffffffffffffffffffffffffffffffff1673ffffffffffffffffffffffffffffffffffffffff16632f54bf6e846040518263ffffffff167c0100000000000000000000000000000000000000000000000000000000028152600401808273ffffffffffffffffffffffffffffffffffffffff1673ffffffffffffffffffffffffffffffffffffffff16815260200191505060206040518083038186803b158015610fc657600080fd5b505afa158015610fda573d6000803e3d6000fd5b505050506040513d6020811015610ff057600080fd5b81019080805190602001909291905050501515611075576040517f08c379a000000000000000000000000000000000000000000000000000000000815260040180806020018281038252601f8152602001807f5369676e6174757265206e6f742070726f7669646564206279206f776e65720081525060200191505060405180910390fd5b8373ffffffffffffffffffffffffffffffffffffffff168373ffffffffffffffffffffffffffffffffffffffff1611151561113e576040517f08c379a000000000000000000000000000000000000000000000000000000000815260040180806020018281038252602b8152602001807f5369676e61747572657320617265206e6f74206f726465726564206279206f7781526020017f6e6572206164647265737300000000000000000000000000000000000000000081525060400191505060405180910390fd5b8293508180600101925050610ef6565b505050505050565b60008060008061116686866111e5565b80935081945082955050505060018784848460405160008152602001604052604051808581526020018460ff1660ff1681526020018381526020018281526020019450505050506020604051602081039080840390855afa1580156111cf573d6000803e3d6000fd5b5050506020604051035193505050509392505050565b60008060008360410260208101860151925060408101860151915060ff6041820187015116935050925092509256fea165627a7a723058204154b333d662417cc3f1278189af387b8d0403d86af12696b47ed491a1e2de790029","source":"pragma solidity ^0.5.0;\nimport \"../base/Module.sol\";\nimport \"../base/OwnerManager.sol\";\nimport \"../common/SignatureDecoder.sol\";\n\n\n/// @title Gnosis Safe State Module - A module that allows interaction with statechannels.\n/// @author Stefan George - <stefan@gnosis.pm>\n/// @author Richard Meissner - <richard@gnosis.pm>\ncontract StateChannelModule is Module, SignatureDecoder {\n\n    string public constant NAME = \"State Channel Module\";\n    string public constant VERSION = \"0.1.0\";\n\n    // isExecuted mapping allows to check if a transaction (by hash) was already executed.\n    mapping (bytes32 => uint256) public isExecuted;\n\n    /// @dev Setup function sets manager\n    function setup()\n        public\n    {\n        setManager();\n    }\n\n    /// @dev Allows to execute a Safe transaction confirmed by required number of owners.\n    /// @param to Destination address of Safe transaction.\n    /// @param value Ether value of Safe transaction.\n    /// @param data Data payload of Safe transaction.\n    /// @param operation Operation type of Safe transaction.\n    /// @param nonce Nonce used for this Safe transaction.\n    /// @param signatures Packed signature data ({bytes32 r}{bytes32 s}{uint8 v})\n    function execTransaction(\n        address to, \n        uint256 value, \n        bytes memory data, \n        Enum.Operation operation, \n        uint256 nonce,\n        bytes memory signatures\n    )\n        public\n    {\n        bytes32 transactionHash = getTransactionHash(to, value, data, operation, nonce);\n        require(isExecuted[transactionHash] == 0, \"Transaction already executed\");\n        checkHash(transactionHash, signatures);\n        // Mark as executed and execute transaction.\n        isExecuted[transactionHash] = 1;\n        require(manager.execTransactionFromModule(to, value, data, operation), \"Could not execute transaction\");\n    }\n\n    function checkHash(bytes32 transactionHash, bytes memory signatures)\n        internal\n        view\n    {\n        // There cannot be an owner with address 0.\n        address lastOwner = address(0);\n        address currentOwner;\n        uint256 i;\n        uint256 threshold = OwnerManager(address(manager)).getThreshold();\n        // Validate threshold is reached.\n        for (i = 0; i < threshold; i++) {\n            currentOwner = recoverKey(transactionHash, signatures, i);\n            require(OwnerManager(address(manager)).isOwner(currentOwner), \"Signature not provided by owner\");\n            require(currentOwner > lastOwner, \"Signatures are not ordered by owner address\");\n            lastOwner = currentOwner;\n        }\n    }\n\n    /// @dev Returns hash to be signed by owners.\n    /// @param to Destination address.\n    /// @param value Ether value.\n    /// @param data Data payload.\n    /// @param operation Operation type.\n    /// @param nonce Transaction nonce.\n    /// @return Transaction hash.\n    function getTransactionHash(\n        address to, \n        uint256 value, \n        bytes memory data, \n        Enum.Operation operation, \n        uint256 nonce\n    )\n        public\n        view\n        returns (bytes32)\n    {\n        return keccak256(abi.encodePacked(byte(0x19), byte(0), this, to, value, data, operation, nonce));\n    }\n}\n","compiler":{"name":"solc","version":"0.5.0+commit.1d4f565a.Emscripten.clang"},"schemaVersion":"2.0.1","updatedAt":"2019-02-25T15:14:47.170Z"}